:020000040000FA
:10000000831600308500E0308600831200303D20EA
:100010004C20FB308600861A0F2807303D20061B37
:10002000132808303D20861B172809303D204C201E
:10003000F7308600861A1E2804303D20061B222831
:1000400005303D20861B262806303D204C20EF3011
:100050008600861A2D2801303D20061B31280230EB
:100060003D20861B352803303D204C20FD30860086
:10007000061B082800303D20082840208500080085
:100080008207003401340234033404340534063466
:1000900007340834093408000530A000D930810045
:1000A0000630831681000B1D53280B118312A00B01
:0400B0004E280800CE
:00000001FF
