:020000040000FA
:10000000831600308500FF30860083120F30850094
:10001000861C0D28061D2428082800305C2001308D
:100020005C2002305C2003305C2004305C20053012
:100030005C2006305C2007305C2008305C200930F2
:100040005C200F308500082809305C2008305C20D7
:1000500007305C2006305C2005305C2004305C20DA
:1000600003305C2002305C2001305C2000305C20DA
:100070000F3085000828820700340134023403342D
:100080000434053406340734083409340800C83011
:100090008D00D9308100063057208316810057200B
:1000A0000B1D4F280B1183128D0B49280800861C4D
:1000B0000D28061D242808003B2085004720080045
:00000001FF
